{
  "_format": "hh-sol-artifact-1",
  "contractName": "PriceAggregator",
  "sourceName": "contracts/PriceAggregator.sol",
  "abi": [
    {
      "inputs": [
        {
          "internalType": "address",
          "name": "token",
          "type": "address"
        }
      ],
      "name": "decimals",
      "outputs": [
        {
          "internalType": "uint8",
          "name": "",
          "type": "uint8"
        }
      ],
      "stateMutability": "view",
      "type": "function"
    },
    {
      "inputs": [
        {
          "internalType": "address",
          "name": "priceFeed",
          "type": "address"
        }
      ],
      "name": "getLatestPrice",
      "outputs": [
        {
          "internalType": "int256",
          "name": "",
          "type": "int256"
        }
      ],
      "stateMutability": "view",
      "type": "function"
    }
  ],
  "bytecode": "0x608060405234801561001057600080fd5b5061044a806100206000396000f3fe608060405234801561001057600080fd5b50600436106100365760003560e01c806316345f181461003b578063d449a8321461006b575b600080fd5b6100556004803603810190610050919061021b565b61009b565b6040516100629190610302565b60405180910390f35b6100856004803603810190610080919061021b565b61012b565b604051610092919061031d565b60405180910390f35b6000808273ffffffffffffffffffffffffffffffffffffffff1663feaf968c6040518163ffffffff1660e01b815260040160a06040518083038186803b1580156100e457600080fd5b505afa1580156100f8573d6000803e3d6000fd5b505050506040513d601f19601f8201168201806040525081019061011c9190610244565b50505091505080915050919050565b60008173ffffffffffffffffffffffffffffffffffffffff1663313ce5676040518163ffffffff1660e01b815260040160206040518083038186803b15801561017357600080fd5b505afa158015610187573d6000803e3d6000fd5b505050506040513d601f19601f820116820180604052508101906101ab91906102bb565b9050919050565b6000813590506101c1816103a1565b92915050565b6000815190506101d6816103b8565b92915050565b6000815190506101eb816103cf565b92915050565b600081519050610200816103fd565b92915050565b600081519050610215816103e6565b92915050565b60006020828403121561022d57600080fd5b600061023b848285016101b2565b91505092915050565b600080600080600060a0868803121561025c57600080fd5b600061026a888289016101f1565b955050602061027b888289016101c7565b945050604061028c888289016101dc565b935050606061029d888289016101dc565b92505060806102ae888289016101f1565b9150509295509295909350565b6000602082840312156102cd57600080fd5b60006102db84828501610206565b91505092915050565b6102ed8161034a565b82525050565b6102fc8161037e565b82525050565b600060208201905061031760008301846102e4565b92915050565b600060208201905061033260008301846102f3565b92915050565b600061034382610354565b9050919050565b6000819050919050565b600073ffffffffffffffffffffffffffffffffffffffff82169050919050565b6000819050919050565b600060ff82169050919050565b600069ffffffffffffffffffff82169050919050565b6103aa81610338565b81146103b557600080fd5b50565b6103c18161034a565b81146103cc57600080fd5b50565b6103d881610374565b81146103e357600080fd5b50565b6103ef8161037e565b81146103fa57600080fd5b50565b6104068161038b565b811461041157600080fd5b5056fea2646970667358221220ddf3d3219417cf5cbb948335820b096602dbf320bbd0246299dea109aeafaeeb64736f6c63430008000033",
  "linkReferences": {},
  "deployedLinkReferences": {}
}